:020000040800F2
:10000000000C0020DD0E00088D0B0008910B00088D
:1000100000000000000000000000000000000000E0
:10002000000000000000000000000000950B000828
:100030000000000000000000990B00089D0B000864
:100040000000000000000000000000002D0F00086C
:100050002D0F00082D0F00082D0F00082D0F000890
:100060000000000000000000000000000000000090
:100070002D0F00082D0F00082D0F000800000000B4
:10008000000000002D0F000800000000000000002C
:10009000000000002D0F0008000000002D0F0008D8
:1000A000000000002D0F0008000000002D0F0008C8
:1000B0000000000000000000000000000000000040
:1000C000002243088B4274D303098B425FD3030A97
:1000D0008B4244D3030B8B4228D3030C8B420DD3AA
:1000E000FF22090212BA030C8B4202D31212090238
:1000F00065D0030B8B4219D300E0090AC30B8B4276
:1001000001D3CB03C01A5241830B8B4201D38B0323
:10011000C01A5241430B8B4201D34B03C01A5241C8
:10012000030B8B4201D30B03C01A5241C30A8B420B
:1001300001D3CB02C01A5241830A8B4201D38B02F6
:10014000C01A5241430A8B4201D34B02C01A52419A
:10015000030A8B4201D30B02C01A5241CDD2C3090C
:100160008B4201D3CB01C01A524183098B4201D388
:100170008B01C01A524143098B4201D34B01C01A73
:10018000524103098B4201D30B01C01A5241C308EB
:100190008B4201D3CB00C01A524183088B4201D35A
:1001A0008B00C01A524143088B4201D34B00C01A46
:1001B0005241411A00D20146524110467047FFE7B2
:1001C00001B5002000F006F802BDC0460029F7D0B6
:1001D00076E770477047C0460448054B10B5834228
:1001E00003D0044B002B00D0984710BD1400002012
:1001F000140000200000000006480749091A8B106F
:10020000C90FC91810B5491003D0044B002B00D0FA
:10021000984710BD140000201400002000000000CA
:1002200010B5074C2378002B09D1FFF7D5FF054BFC
:10023000002B02D0044800E000BF0123237010BD52
:100240001400002000000000300F0008054B10B51E
:10025000002B03D00449054800E000BFFFF7CCFFA6
:1002600010BDC0460000000018000020300F00083C
:1002700070B500260C4C0D4D641BA410A64209D18C
:10028000002600F055FE0A4C0A4D641BA410A6423D
:1002900005D170BDB300EB5898470136EEE7B300C7
:1002A000EB5898470136F2E7480F0008480F00085E
:1002B0004C0F0008480F00080749084A4B681268AD
:1002C0001B0C1B04134380229201134380224B60BA
:1002D000034B12059A60704700100240040FFF1F85
:1002E00000ED00E070B5A024E4050821200000F036
:1002F000ADFD1B4B188800F09BFC0821200000F08E
:10030000A7FD184D287800F093FC0821200000F08C
:100310009DFD287800F08CFC0821200000F098FD5D
:10032000287800F085FC0821200000F08FFD287857
:1003300000F07EFC0821200000F08AFD287800F003
:1003400077FC0821200000F081FD287800F070FC87
:100350000821200000F07CFD287800F069FC70BDC9
:100360000A0000200600002070B5A024E405082142
:10037000200000F06BFD1021200000F067FD02213D
:10038000200000F063FD4F4E308800F051FC10213A
:10039000200000F05DFD0221200000F059FD4A4DD3
:1003A000287800F045FC1021200000F04FFD0221CC
:1003B000200000F04BFD287800F03AFC10212000CE
:1003C00000F046FD0221200000F042FD287800F0F8
:1003D0002FFC1021200000F039FD0221200000F048
:1003E00035FD287800F024FC1021200000F030FDBD
:1003F0000221200000F02CFD287800F019FC1021CB
:10040000200000F023FD0221200000F01FFD2878CD
:1004100000F00EFC0821200000F018FD1021200043
:1004200000F014FD0221200000F010FD308800F0E3
:10043000FFFB1021200000F00BFD287800F0F8FBF6
:100440001021200000F002FD287800F0F1FB1021BF
:10045000200000F0FDFC287800F0EAFB10212000CD
:1004600000F0F4FC287800F0E3FB1021200000F0FD
:10047000EFFC287800F0DCFB1021200000F0E6FC07
:10048000287800F0D5FB1021200000F0E1FC28784E
:1004900000F0CEFB1021200000F0D8FC287800F0FE
:1004A000C7FB0821200000F0D3FC0221200000F04F
:1004B000CFFC1021200000F0CBFC287800F0B8FB26
:1004C00070BDC0460A0000200600002070B5A025BF
:1004D000ED050821280000F0B9FC144C207800F04C
:1004E000A7FB0221280000F0B1FC207800F0A0FB5F
:1004F0001021280000F0AAFC207800F099FB1021C0
:10050000280000F0A5FC207800F092FB02212800D2
:1005100000F09EFC207800F08BFB0821044800F0DE
:1005200097FC207800F084FB70BDC04605000020D9
:100530000014005070B5A024E4051021200000F044
:1005400085FC0221200000F081FC0821200000F041
:100550007DFC374B188800F06BFB1021200000F069
:1005600077FC0221200000F073FC0821200000F03D
:100570006FFC304D287800F05BFB1021200000F06C
:1005800065FC0221200000F061FC0821200000F041
:100590005DFC287800F04CFB1021200000F058FC96
:1005A0000221200000F054FC0821200000F050FC43
:1005B000287800F03DFB1021200000F047FC0221CC
:1005C000200000F043FC0821200000F03FFC2878C8
:1005D00000F02EFB1021200000F03AFC0221200048
:1005E00000F036FC0821200000F032FC287800F0F2
:1005F0001FFB1021200000F029FC0221200000F048
:1006000025FC0821200000F021FC287800F010FBD8
:100610001021200000F01CFC0221200000F018FC3A
:100620000821200000F014FC287800F001FB70BDC8
:10063000080000200600002070B5A025ED05082167
:10064000280000F003FC294C207800F0F1FA082182
:10065000280000F0FDFB207800F0EAFA02212800D3
:1006600000F0F4FB207800F0E3FA0221280000F00B
:10067000EFFB207800F0DCFA1021280000F0E6FB08
:10068000207800F0D5FA1021280000F0E1FB207856
:1006900000F0CEFA0821280000F0D8FB207800F006
:1006A000C7FA0821280000F0D3FB207800F0C0FA38
:1006B0000221280000F0CAFB207800F0B9FA0221DC
:1006C000280000F0C5FB207800F0B2FA10212800C5
:1006D00000F0BCFB207800F0ABFA1021280000F0FD
:1006E000B7FB207800F0A4FA70BDC04605000020DA
:1006F00070B5A024E4051021200000F0A7FB022122
:10070000200000F0A3FB0821200000F09FFB494ED1
:10071000308800F08DFA0821200000F099FB464D4A
:10072000287800F085FA0821200000F08FFB287857
:1007300000F07EFA0821200000F08AFB287800F003
:1007400077FA0821200000F081FB287800F070FA89
:100750000821200000F07CFB287800F069FA0821CD
:10076000200000F073FB287800F062FA02212000DC
:1007700000F06EFB287800F05BFA0221200000F008
:1007800065FB287800F054FA0221200000F060FB9D
:10079000287800F04DFA0221200000F057FB28785D
:1007A00000F046FA0221200000F052FB287800F009
:1007B0003FFA0221200000F049FB287800F038FAC7
:1007C0001021200000F044FB287800F031FA1021BD
:1007D000200000F03BFB287800F02AFA10212000CE
:1007E00000F036FB287800F023FA1021200000F0FA
:1007F0002DFB287800F01CFA1021200000F028FBC7
:10080000287800F015FA1021200000F01FFB308836
:1008100000F00EFA1021200000F01AFB0221200047
:1008200000F016FB0821200000F012FB287800F0F1
:10083000FFF970BD080000200600002070B5A0255B
:10084000ED050821280000F001FBA74C207800F0FE
:10085000EFF90821280000F0FBFA207800F0E8F911
:100860000221280000F0F2FA207800F0E1F90221DC
:10087000280000F0EDFA207800F0DAF910212800C5
:1008800000F0E4FA207800F0D3F91021280000F0FD
:10089000DFFA207800F0CCF90821280000F0D6FA21
:1008A000207800F0C5F90821280000F0D1FA20785E
:1008B00000F0BEF90221280000F0C8FA207800F00C
:1008C000B7F90221280000F0C3FA207800F0B0F94F
:1008D0001021280000F0BAFA207800F0A9F91021C0
:1008E000280000F0B5FA207800F0A2F908212800CD
:1008F00000F0ACFA207800F09BF90821280000F005
:10090000A7FA207800F094F90221280000F09EFA5E
:10091000207800F08DF90221280000F099FA207863
:1009200000F086F91021280000F090FA207800F0FD
:100930007FF91021280000F08BFA207800F078F978
:100940000821280000F082FA207800F071F90821CF
:10095000280000F07DFA207800F06AF902212800D2
:1009600000F074FA207800F063F90221280000F00A
:100970006FFA207800F05CF91021280000F066FA88
:10098000207800F055F91021280000F061FA207855
:1009900000F04EF90821280000F058FA207800F005
:1009A00047F90821280000F053FA207800F040F9B8
:1009B0000221280000F04AFA207800F039F90221DB
:1009C000280000F045FA207800F032F910212800C4
:1009D00000F03CFA207800F02BF91021280000F0FC
:1009E00037FA207800F024F90821280000F02EFAC8
:1009F000207800F01DF90821280000F029FA20785D
:100A000000F016F90221280000F020FA207800F00A
:100A10000FF90221280000F01BFA207800F008F9F5
:100A20001021280000F012FA207800F001F91021BE
:100A3000280000F00DFA207800F0FAF808212800CC
:100A400000F004FA207800F0F3F80821280000F004
:100A5000FFF9207800F0ECF80221280000F0F6F908
:100A6000207800F0E5F80221280000F0F1F9207864
:100A700000F0DEF81021280000F0E8F9207800F0FE
:100A8000D7F81021280000F0E3F9207800F0D0F822
:100A90000821280000F0DAF9207800F0C9F80821D0
:100AA000280000F0D5F9207800F0C2F802212800D3
:100AB00000F0CCF9207800F0BBF80221280000F00B
:100AC000C7F9207800F0B4F81021280000F0BEF932
:100AD000207800F0ADF81021280000F0B9F9207856
:100AE00000F0A6F870BDC04604000020F0B5012556
:100AF000254C8BB000F07EF8636BA0202B43636322
:100B0000636B02222B40019301260227019B0123E4
:100B100004A9C005049205930696079700F09AF879
:100B2000636BA0202B436363636B10222B40029303
:100B3000029B012304A9C00504920593069607971A
:100B400000F088F8636BA0202B436363636B08227B
:100B50001D400395039B012304A9C005049205933E
:100B60000696079700F076F8FFF7BCFBFFF7FCFB53
:100B7000FFF7ACFCFFF7DEFCFFF75EFDFFF7B8FD0B
:100B8000FFF75CFEF0E7C046001002407047C04629
:100B9000FEE7C0467047C0467047C04610B500F03B
:100BA00035F810BD7047C0460F4B70B5196804008A
:100BB000002901D1012070BDFA208000FFF780FAE2
:100BC0000A4D01002868FFF77BFA00F06DF9002854
:100BD000F0D1032CEED801380022210000F03AF9C0
:100BE000034B00201C60E6E70C0000200000002002
:100BF0001000002010B50320FFF7D6FF041E02D01E
:100C00000124200010BDFFF7CDFFFAE7034A044995
:100C1000136809685B1813607047C04630000020F5
:100C20000C000020014B18687047C04630000020BF
:100C300070B50400FFF7F6FF0500631C02D0044BFB
:100C40001B68E418FFF7EEFF401BA042FAD370BD0B
:100C50000C000020F0B54546DE4657464E46E0B54E
:100C60000D68002383B0002D00D189E0754F0091FD
:100C700001242E009C402640019625427BD0009AFC
:100C80001021526816008E43B146022E00D17EE03C
:100C900001688B4659008C4603216646B1408A465E
:100CA000C943564688465946B1438B46032166469A
:100CB0001140B1408A4659465646314301600121F0
:100CC00049428A46D1444946012900D895E0464622
:100CD000C468009926408C6861468C40802134436A
:100CE0004905C4600A4246D056499C088C46A40077
:100CF0006444216E8C4603211940C90088460F21A7
:100D00004646B140894661464E46B1438C46A021D5
:100D1000C90588420CD04C4989460121484500D07C
:100D200002214646B140894661464E4631438C46D3
:100D30006146216680217C580199C9438C46D103C4
:100D400000D57CE061460C4080217C5084243C59D5
:100D5000910300D570E061460C4084217C503C68D2
:100D6000D10266D461460C403C607C6892025DD43E
:100D7000624614407C602A000133DA4000D077E7F5
:100D800003B0F0BCBB46B246A946A046F0BDD908A8
:100D900089008C4684446146096A8A4607211940C5
:100DA000890088460F214646B140894651464E4645
:100DB000B14346468A4600990969B1408846514682
:100DC000464631438846614646460E6201688A4679
:100DD00059008C4603216646B1408946C9434E46B8
:100DE00088465146B1438A46032166461140B140C8
:100DF000894651464E463143016081680E004146A6
:100E00000E400099B246C9680E0061468E40B14658
:100E1000564649460E43866041680E000121A643AE
:100E200014090C409C403443446050E7019A144339
:100E3000A0E701990C4397E701990C438DE70199CD
:100E40000C4381E7001802400004005081617047A4
:100E500081627047FF22032310B514000340DB00BA
:100E60009C4089010A40E4439A4000280BDB0C4B6C
:100E7000C0219C468008800060448900435823407C
:100E80001343435010BD0F23064903408C46083BD3
:100E90009B089B006344D9690C401443DC61F1E773
:100EA00000E100E000ED00E08022431E520401203A
:100EB00093420ED2C021074A07485360036A0906CD
:100EC0001B021B0A0B4303620023002093600733BD
:100ED0001360704710E000E000ED00E00D4885462B
:100EE0000D480E490E4A002302E0D458C450043382
:100EF000C4188C42F9D30B4A0B4C002301E0136059
:100F00000432A242FBD3FFF7D7F9FFF7B1F9FFF79D
:100F1000EDFDFEE7000C0020000000201400002082
:100F2000500F00081400002034000020FEE70000ED
:100F3000F8B5C046F8BC08BC9E467047F8B5C04638
:080F4000F8BC08BC9E46704796
:040F48004D0200084E
:040F4C002102000876
:100F500000127A0032FAC800A00FD007010000008A
:040F60000400000089
:0400000508000EDD04
:00000001FF
